{
  "contractName": "TrustRegistry",
  "abi": [
    {
      "inputs": [],
      "stateMutability": "nonpayable",
      "type": "constructor"
    },
    {
      "inputs": [
        {
          "internalType": "string",
          "name": "issuerDID",
          "type": "string"
        },
        {
          "internalType": "string",
          "name": "schemaID",
          "type": "string"
        },
        {
          "internalType": "uint256",
          "name": "_expiry",
          "type": "uint256"
        },
        {
          "internalType": "uint256",
          "name": "_assuranceLevel",
          "type": "uint256"
        }
      ],
      "name": "grantAssurance",
      "outputs": [],
      "stateMutability": "nonpayable",
      "type": "function"
    },
    {
      "inputs": [
        {
          "internalType": "string",
          "name": "_issuerDID",
          "type": "string"
        },
        {
          "internalType": "string",
          "name": "_schemaID",
          "type": "string"
        }
      ],
      "name": "checkAssurance",
      "outputs": [
        {
          "internalType": "uint256",
          "name": "",
          "type": "uint256"
        }
      ],
      "stateMutability": "view",
      "type": "function",
      "constant": true
    }
  ],
  "bytecode": "0x608060405234801561001057600080fd5b50336000806101000a81548173ffffffffffffffffffffffffffffffffffffffff021916908373ffffffffffffffffffffffffffffffffffffffff1602179055506105f3806100606000396000f3fe608060405234801561001057600080fd5b50600436106100365760003560e01c806386e4a8bf1461003b5780639c0292c214610057575b600080fd5b610055600480360381019061005091906102d5565b610087565b005b610071600480360381019061006c9190610269565b61018a565b60405161007e9190610402565b60405180910390f35b60008054906101000a900473ffffffffffffffffffffffffffffffffffffffff1673ffffffffffffffffffffffffffffffffffffffff163373ffffffffffffffffffffffffffffffffffffffff1614610115576040517f08c379a000000000000000000000000000000000000000000000000000000000815260040161010c906103e2565b60405180910390fd5b61011d6101d2565b82816000018181525050818160200181815250508060018660405161014291906103cb565b90815260200160405180910390208560405161015e91906103cb565b908152602001604051809103902060008201518160000155602082015181600101559050505050505050565b600060018360405161019c91906103cb565b9081526020016040518091039020826040516101b891906103cb565b908152602001604051809103902060010154905092915050565b604051806040016040528060008152602001600081525090565b60006101ff6101fa84610442565b61041d565b90508281526020810184848401111561021757600080fd5b6102228482856104a4565b509392505050565b600082601f83011261023b57600080fd5b813561024b8482602086016101ec565b91505092915050565b600081359050610263816105a6565b92915050565b6000806040838503121561027c57600080fd5b600083013567ffffffffffffffff81111561029657600080fd5b6102a28582860161022a565b925050602083013567ffffffffffffffff8111156102bf57600080fd5b6102cb8582860161022a565b9150509250929050565b600080600080608085870312156102eb57600080fd5b600085013567ffffffffffffffff81111561030557600080fd5b6103118782880161022a565b945050602085013567ffffffffffffffff81111561032e57600080fd5b61033a8782880161022a565b935050604061034b87828801610254565b925050606061035c87828801610254565b91505092959194509250565b600061037382610473565b61037d818561048f565b935061038d8185602086016104b3565b80840191505092915050565b60006103a660308361047e565b91506103b182610557565b604082019050919050565b6103c58161049a565b82525050565b60006103d78284610368565b915081905092915050565b600060208201905081810360008301526103fb81610399565b9050919050565b600060208201905061041760008301846103bc565b92915050565b6000610427610438565b905061043382826104e6565b919050565b6000604051905090565b600067ffffffffffffffff82111561045d5761045c610517565b5b61046682610546565b9050602081019050919050565b600081519050919050565b600082825260208201905092915050565b600081905092915050565b6000819050919050565b82818337600083830152505050565b60005b838110156104d15780820151818401526020810190506104b6565b838111156104e0576000848401525b50505050565b6104ef82610546565b810181811067ffffffffffffffff8211171561050e5761050d610517565b5b80604052505050565b7f4e487b7100000000000000000000000000000000000000000000000000000000600052604160045260246000fd5b6000601f19601f8301169050919050565b7f6772616e74696e67206173737572616e63652063616e206f6e6c79206265206460008201527f6f6e6520627920746865206f776e657200000000000000000000000000000000602082015250565b6105af8161049a565b81146105ba57600080fd5b5056fea264697066735822122055ac9454e946493d7e20014f2482c89365b6fbfd0e2231a638c59c21ec4e58b864736f6c63430008040033",
  "immutableReferences": {},
  "source": "// SPDX-License-Identifier: MIT\r\npragma solidity 0.8.4;\r\n\r\ncontract TrustRegistry {\r\n\r\n    struct trustRecord {\r\n        uint expiryDate;\r\n        uint assuranceLevel;\r\n    }\r\n    \r\n    address owner;\r\n    \r\n    constructor () {\r\n        owner = msg.sender;\r\n        }\r\n    \r\n    //Map Organization DID -> SchemaID/Credential DefinitionID -> trustRecord\r\n    \r\n    mapping(string => mapping(string => trustRecord)) issuerAssurance;\r\n    \r\n    function grantAssurance(string memory issuerDID, string memory schemaID, uint _expiry, uint _assuranceLevel) public {\r\n        require(msg.sender  == owner,\"granting assurance can only be done by the owner\");\r\n        trustRecord memory trust;\r\n        trust.expiryDate = _expiry;\r\n        trust.assuranceLevel = _assuranceLevel;\r\n        issuerAssurance[issuerDID][schemaID] = trust;\r\n    }\r\n    \r\n    function checkAssurance(string memory _issuerDID, string memory _schemaID) public view returns (uint) {\r\n        return issuerAssurance[_issuerDID][_schemaID].assuranceLevel;\r\n    }\r\n}",
  "sourcePath": "C:/Users/elani/Desktop/CanaCred/Codes/TrustRegistry/truffle-app/contracts/TrustRegistry.sol",
  "compiler": {
    "name": "solc",
    "version": "0.8.4+commit.c7e474f2.Emscripten.clang"
  },
  "schemaVersion": "3.4.1",
  "updatedAt": "2021-10-07T00:07:05.021Z",
  "networkType": "ethereum",
  "devdoc": {
    "kind": "dev",
    "methods": {},
    "version": 1
  },
  "userdoc": {
    "kind": "user",
    "methods": {},
    "version": 1
  }
}