{
  "contractName": "VerifierTrustRegistry",
  "abi": [
    {
      "inputs": [],
      "stateMutability": "nonpayable",
      "type": "constructor"
    },
    {
      "inputs": [
        {
          "internalType": "string",
          "name": "verifierDID",
          "type": "string"
        },
        {
          "internalType": "string",
          "name": "schemaID",
          "type": "string"
        },
        {
          "internalType": "uint256",
          "name": "_expiry",
          "type": "uint256"
        },
        {
          "internalType": "uint256",
          "name": "_credentialOverlay",
          "type": "uint256"
        }
      ],
      "name": "grantCredential",
      "outputs": [],
      "stateMutability": "nonpayable",
      "type": "function"
    },
    {
      "inputs": [
        {
          "internalType": "string",
          "name": "_verifierDID",
          "type": "string"
        },
        {
          "internalType": "string",
          "name": "_schemaID",
          "type": "string"
        }
      ],
      "name": "checkCredential",
      "outputs": [
        {
          "internalType": "uint256",
          "name": "",
          "type": "uint256"
        }
      ],
      "stateMutability": "view",
      "type": "function",
      "constant": true
    }
  ],
  "bytecode": "0x608060405234801561001057600080fd5b50336000806101000a81548173ffffffffffffffffffffffffffffffffffffffff021916908373ffffffffffffffffffffffffffffffffffffffff160217905550610627806100606000396000f3fe608060405234801561001057600080fd5b50600436106100365760003560e01c8063853eed691461003b578063921532761461006b575b600080fd5b61005560048036038101906100509190610271565b610087565b6040516100629190610422565b60405180910390f35b610085600480360381019061008091906102e9565b6100cf565b005b600060018360405161009991906103eb565b9081526020016040518091039020826040516100b591906103eb565b908152602001604051809103902060010154905092915050565b60008054906101000a900473ffffffffffffffffffffffffffffffffffffffff1673ffffffffffffffffffffffffffffffffffffffff163373ffffffffffffffffffffffffffffffffffffffff161461015d576040517f08c379a000000000000000000000000000000000000000000000000000000000815260040161015490610402565b60405180910390fd5b6101656101d2565b82816000018181525050818160200181815250508060018660405161018a91906103eb565b9081526020016040518091039020856040516101a691906103eb565b908152602001604051809103902060008201518160000155602082015181600101559050505050505050565b604051806040016040528060008152602001600081525090565b60006101ff6101fa84610462565b61043d565b90508281526020810184848401111561021b5761021a61056b565b5b6102268482856104c4565b509392505050565b600082601f83011261024357610242610566565b5b81356102538482602086016101ec565b91505092915050565b60008135905061026b816105da565b92915050565b6000806040838503121561028857610287610575565b5b600083013567ffffffffffffffff8111156102a6576102a5610570565b5b6102b28582860161022e565b925050602083013567ffffffffffffffff8111156102d3576102d2610570565b5b6102df8582860161022e565b9150509250929050565b6000806000806080858703121561030357610302610575565b5b600085013567ffffffffffffffff81111561032157610320610570565b5b61032d8782880161022e565b945050602085013567ffffffffffffffff81111561034e5761034d610570565b5b61035a8782880161022e565b935050604061036b8782880161025c565b925050606061037c8782880161025c565b91505092959194509250565b600061039382610493565b61039d81856104af565b93506103ad8185602086016104d3565b80840191505092915050565b60006103c660318361049e565b91506103d18261058b565b604082019050919050565b6103e5816104ba565b82525050565b60006103f78284610388565b915081905092915050565b6000602082019050818103600083015261041b816103b9565b9050919050565b600060208201905061043760008301846103dc565b92915050565b6000610447610458565b90506104538282610506565b919050565b6000604051905090565b600067ffffffffffffffff82111561047d5761047c610537565b5b6104868261057a565b9050602081019050919050565b600081519050919050565b600082825260208201905092915050565b600081905092915050565b6000819050919050565b82818337600083830152505050565b60005b838110156104f15780820151818401526020810190506104d6565b83811115610500576000848401525b50505050565b61050f8261057a565b810181811067ffffffffffffffff8211171561052e5761052d610537565b5b80604052505050565b7f4e487b7100000000000000000000000000000000000000000000000000000000600052604160045260246000fd5b600080fd5b600080fd5b600080fd5b600080fd5b6000601f19601f8301169050919050565b7f6772616e74696e672063726564656e7469616c2063616e206f6e6c792062652060008201527f646f6e6520627920746865206f776e6572000000000000000000000000000000602082015250565b6105e3816104ba565b81146105ee57600080fd5b5056fea2646970667358221220a7b96443c46ebc20cc5e1f57227f916bbea8b31eb1c5cf263941be95eb74eddc64736f6c63430008070033",
  "immutableReferences": {},
  "source": "// SPDX-License-Identifier: MIT\r\npragma solidity 0.8.7;\r\n\r\ncontract VerifierTrustRegistry {\r\n    struct trustRecord {\r\n        uint256 expiryDate;\r\n        uint256 credentialOverlay;\r\n    }\r\n\r\n    address owner;\r\n\r\n    constructor() {\r\n        owner = msg.sender;\r\n    }\r\n\r\n    //Map Organization DID -> SchemaID/Credential DefinitionID -> trustRecord\r\n\r\n    mapping(string => mapping(string => trustRecord)) verifierCredential;\r\n\r\n    function grantCredential(\r\n        string memory verifierDID,\r\n        string memory schemaID,\r\n        uint256 _expiry,\r\n        uint256 _credentialOverlay\r\n    ) public {\r\n        require(\r\n            msg.sender == owner,\r\n            \"granting credential can only be done by the owner\"\r\n        );\r\n        trustRecord memory trust;\r\n        trust.expiryDate = _expiry;\r\n        trust.credentialOverlay = _credentialOverlay;\r\n        verifierCredential[verifierDID][schemaID] = trust;\r\n    }\r\n\r\n    function checkCredential(\r\n        string memory _verifierDID,\r\n        string memory _schemaID\r\n    ) public view returns (uint256) {\r\n        return verifierCredential[_verifierDID][_schemaID].credentialOverlay;\r\n    }\r\n}\r\n",
  "sourcePath": "C:/Users/elani/Desktop/CanaCred/Codes/TrustRegistry/verifier/truffle-app/contracts/VerifierTrustRegistry.sol",
  "compiler": {
    "name": "solc",
    "version": "0.8.7+commit.e28d00a7.Emscripten.clang"
  },
  "schemaVersion": "3.4.1",
  "updatedAt": "2021-10-21T01:17:23.820Z",
  "networkType": "ethereum",
  "devdoc": {
    "kind": "dev",
    "methods": {},
    "version": 1
  },
  "userdoc": {
    "kind": "user",
    "methods": {},
    "version": 1
  }
}